:100000006DC024C386C085C084C083C082C081C047
:1000100080C07FC07EC07DC07CC07BC07AC079C0FC
:1000200078C077C076C075C074C01201100100009E
:100030000008C016E4050100010200010902650084
:1000400002010080320904000000010100000924BF
:10005000010001090001010904010002010300007F
:1000600007240100014100062402010100062402C8
:100070000202000924030103010201000924030212
:1000800004010101000905010308000A000005251B
:100090000101010905810308000A0000052501018D
:1000A000030403090424036B0075007700610074E6
:1000B000006100790040006E0069006600740079FC
:1000C000002E0063006F006D0012034D00690043B5
:1000D000006F004D006F0063006F000011241FBE11
:1000E000CFE5D1E0DEBFCDBF10E0A0E6B0E0E8E9AB
:1000F000F8E002C005900D92A237B107D9F710E0E1
:10010000A2E7B0E001C01D92AF3DB107E1F7C9D051
:10011000C1C376CFFC018381813041F48AE290E053
:100120009093C4008093C30082E108958CE390E033
:100130009093C4008093C30085E60895FC01E0819C
:100140008E2F8076803229F4E7FD03C081E0809312
:1001500077008FEF0895FC011082118212821382C2
:1001600014821582168287E0089581E00895CF9366
:10017000DF93EC013091720041E098819F7088B369
:10018000842788BB923008F1DE0121E0E32FF0E004
:10019000E857FF4F11968C91119780833F5F3F7115
:1001A000213029F4953089F09F3059F40EC0223067
:1001B00041F4923051F0963041F09C3031F09D3056
:1001C00021F02F5F1196243009F7653018F024963E
:1001D0006450D3CF30937200DF91CF910895C7DF81
:1001E0000895382F88B391E0892788BB80917500E6
:1001F000882331F0373F09F052C0109275002BC0B0
:10020000383F50F08FE0809380003093810010924F
:1002100082001092830041C037FF07C0303F19F4BD
:100220009093750018C010927600E0917600EE234E
:10023000A1F4232F22952F70822F90E08770907069
:100240000196880F991F8093760020937800309351
:10025000790010927B0080E00895F0E0DF01A05A61
:10026000BF4F9C91E170F070E858FF4F3283892FA7
:100270008F708093760097FF12C0809178009091E4
:100280007900A0917A00B0917B00809380009093D8
:100290008100A0938200B093830081E0089580E004
:1002A00008951F932EE088E190E00FB6F894A8958A
:1002B00081BD0FBE21BD81ED82BB8EE281BB82E29A
:1002C00081BB8FE189B988E18AB981E087BB18BA1F
:1002D00031D010927700789481E088BBA8955DD0EA
:1002E0005D9B10C09091730080917200891751F04E
:1002F000E92FF0E0E857FF4F80818CB99F5F9F7135
:10030000909373005F9B07C0109174008CB169DFFC
:10031000182B109374008091B40084FFDFCF80917C
:1003200074008823D9F280E890E064E010D0109245
:100330007400D4CF85B7836085BF8BB780648BBFD3
:100340008BE48093B5008AE58093B40008951F93F1
:10035000DC01162F8091B4008E31E9F08091B40059
:1003600084FF07C08091B50098E889278093B50085
:1003700003C08AE58093B400912FE6EBF0E08D9105
:10038000819391501916DCF386EB90E0612F5AD1DE
:100390001C5F1093B4001F9108951F93CF93DF93B8
:1003A0006091C500635067FDCBC08091C200CCE076
:1003B000D0E0C81BD109C753DF4F8091C100803105
:1003C00018F4CE010CDFBAC08D3209F0A7C0683036
:1003D00009F0B4C083EC8093A9008AE58093700093
:1003E0001092A8009881892F807621F0CE01A6DE98
:1003F000282F81C02A813C811092B20089818823F4
:1004000081F49F71923049F4313839F48091B4000D
:100410008E3119F481E08093B2001092B30022E093
:1004200063C0813011F0833089F4222309F05BC06E
:10043000313809F058C0813011F08EE101C08AE5F1
:100440008093B4008BE48093B5004DC0853019F4DF
:100450002093C60048C0863079F58B81813011F039
:10046000823021F4CE0156DE282F22C08330F9F4E9
:100470008A81882341F481EA90E09093C4008093BC
:10048000C30024E015C0813041F485EA90E09093E8
:10049000C4008093C30024E20BC0823041F489EC95
:1004A00090E09093C4008093C30022E101C020E05B
:1004B00080E48093A8001FC0883021F421E088ECFC
:1004C00090E014C0893019F42093C80009C08A3024
:1004D00011F421E009C08B3031F48BE48093B50036
:1004E0008AE58093B40020E082EB90E09093C40012
:1004F0008093C30009C02F3F39F4888187FD2E8186
:1005000080E88093A80006C08F81882319F48E812B
:10051000821708F0822F8093710010C08091A8008C
:1005200087FF0CC0CE0121DE8F3F21F48EE1809346
:10053000700004C0882311F0109271001092C50061
:100540008091700084FF58C0809171008F3F09F442
:1005500053C0182F893008F018E0811B8093710078
:100560008091A90098E889278093A900112391F12F
:100570008091A80087FF08C08AEA90E0612FEBDD38
:10058000182F893098F526C02091C3003091C400FF
:1005900086FF0DC0AAEAB0E080E090E0F901E80F24
:1005A000F91FE491ED9301961817C1F708C0912F38
:1005B000D901EAEAF0E08D9181939150E1F7115071
:1005C000812F90E01F5F0196820F931F9093C400CC
:1005D0008093C3008AEA90E0612F34D0612F6C5F72
:1005E0006C3041F08FEF8093710004C08FEF8093E7
:1005F00071006EE16093700094E180B38C7049F4F7
:100600009150D9F71092C6001092C0008AE58093ED
:10061000B400DF91CF911F910895A82FB92F80E0EA
:1006200090E041E050EA609530E009C02D918227CA
:100630009795879510F084279527305EC8F36F5FF4
:10064000A8F30895EADF8D939D930895CF93CFB7D4
:10065000CF93DF93C395839BE9F7839B0BC0839B69
:1006600009C0839B07C0839B05C0839B03C0839BFA
:1006700001C08EC06F93C091C200DD27C753DF4F0A
:100680002F9365E5839B03C02F916F91E6CF0F9366
:100690001F934F9320E040E15F9300B30C7003FB86
:1006A00027F93F9350E03BE039C01C7040642F773E
:1006B000012F5F5F1EC0406810B31C702F7752502F
:1006C0001FC0406400B32F770C70D1F15F5F00C092
:1006D00023C0406210B32F771C7091F15F5F00C0A0
:1006E00025C00C701027515012F45D5F00001150AE
:1006F00027952C3F10B3C8F61C7001270150279591
:100700002C3FC8F64227499300B30C7010274F7353
:10071000115027952C3FA8F64695469510B31C70AE
:1007200079F00127015027952C3F98F66B5A60F31A
:10073000315000B3B0F600C010E41ABF00271CC04F
:100740003B503195C31BD04010E41ABF0881033CD5
:1007500021F10B3411F12091C0001981110F1213F6
:10076000EDCF4A81441F093669F10D3211F0013E87
:1007700029F74F7009F0042F0093C7003F915F9154
:100780004F911F910F912F916F91CAB7C6FD62CF04
:10079000DF91CF91CFBFCF9118952091C700222331
:1007A00069F31091C500112391F5343092F1309323
:1007B000C5002093C1001091C2003BE0311B309373
:1007C000C20027C00091C50001300CF50AE54F704A
:1007D00049F43091700034FD1DC000937000C9EAE7
:1007E000D0E01CC03091B40034FD14C00093B400BC
:1007F000C5EBD0E013C0052710E000C0000002BB2D
:100800001AC0052710E0221F1DC010E021C04AE5D4
:1008100002C032ED432FC4E1D0E032E011B31C60DE
:10082000939A02B311BB5CE020E865E320FF052743
:1008300002BB279517951C3FF0F66695B8F7B1F700
:1008400020FF052702BB279517951C3FD0F627955B
:10085000179517FF052700001C3F02BBB0F6299132
:100860003A9519F7037F1091C600110FC651D04079
:1008700002BB11F01093C00010E41ABF086011B35E
:10088000137F402F437F54E05A95F1F702BB11BB11
:0808900042BB74CFF894FFCFC6
:10089800000003820584078609888A008C000F8E71
:0208A8005AFFF5
:00000001FF
