:1000000067C0CEC27FC07EC07DC07CC07BC07AC0CE
:1000100079C078C077C076C075C074C073C072C034
:1000200071C070C06FC00902650002010080320912
:100030000400000001010000092401000109000181
:10004000010904010002010300000724010001412D
:100050000006240201010006240202020009240312
:100060000103010201000924030204010101000946
:1000700005010308000A00000525010101090581A9
:100080000308000A00000525010103120110010008
:10009000000008C016E4050100010200010A034D3A
:1000A00000690043006F0024036B00750077006156
:1000B0000074006100790040006E00690066007401
:1000C0000079002E0063006F006D00040309040036
:1000D00011241FBECFEDCDBF10E0A0E6B0E0EAEEE8
:1000E000F7E003C0C89531960D92A237B107D1F75A
:1000F00010E0A2E7B0E001C01D92AD3BB107E1F70F
:100100009ED072C37DCFF92FE82F8381813049F4CF
:100110008BE890E09093A2008093A10082E190E0B0
:10012000089586E290E09093A2008093A10085E676
:1001300090E00895F92FE82FE0818E2F992780769F
:100140009070809729F4E7FD03C081E080937500EB
:100150008FEF90E00895F92FE82F1082118212821C
:10016000138214821582168287E090E0089581E060
:1001700090E008950895482F88B321E0822788BB36
:1001800090917400992329F0473FA9F410927400CC
:1001900012C0483F50F08FE080937E0040937F0074
:1001A000909380009093810044C047FF09C0403F76
:1001B00029F42093740080E090E0089590937300F8
:1001C000E0917300EE23A1F4842F82958F70282F85
:1001D000332727703070220F331F922F9E5F90932A
:1001E00073008093760040937700E093790024C0F9
:1001F000FF27AE2FBF2FA05ABF4F9C91E170F07028
:10020000EA58FF4F4283892F8F708093730097FFC6
:1002100013C08091760090917700A0917800B09102
:10022000790080937E0090937F00A0938000B0932C
:10023000810081E090E0089580E090E00895CFEDA6
:10024000D0E0DEBFCDBF88E190E02EE00FB6F8949D
:10025000A89581BD0FBE21BD81ED82BB8EE281BB21
:10026000CFEF80E08150F1F7C150D9F782E281BB36
:100270008FE189B988E18AB981E087BBC8BB6AD1BF
:10028000C0937500789481E088BBA8953FD05F9BB0
:1002900007C08CB170DF90917200982B9093720020
:1002A0008091920084FFF1CF80917200882369F3DE
:1002B00064E08EE790E003D010927200E6CFCF9317
:1002C000C62FB92FA82F809192008E31E9F080912E
:1002D000920084FF07C08091930098E8892780935B
:1002E000930003C08AE580939200E4E9F0E09C2F3C
:1002F0008D91819391501916DCF36C2F84E990E075
:100300004BD1CC5FC0939200CF910895CF93DF93F0
:100310006091A300635067FDC3C08091A000C3EB50
:10032000D0E0C81BD10980919F00803120F48C2F30
:100330009D2F20DFB3C08D3209F09FC0683009F0D7
:10034000ADC083EC809387005AE550937000109203
:1003500086009881892F807629F08C2F9D2FEADEE8
:10036000982F78C0382FE0E9F0E02A814C81809303
:1003700090008981882381F49F71923051F4413833
:1003800041F4932F809192008E3109F491E0909383
:100390009000118232E059C0813011F0833089F42D
:1003A000222309F052C0413809F04FC0813011F4C6
:1003B000852F01C08EE1809392008BE4809393009F
:1003C00044C0853019F42093A4003FC0863029F53D
:1003D0008B81813011F0823029F48C2F9D2F93DE98
:1003E000382F17C08330A9F4222321F434E08BEC9A
:1003F00090E00BC0213021F434E287EA90E005C0A0
:10040000223039F43AE08DE990E09093A200809395
:10041000A10080E4809386001CC0883019F4E6EACD
:10042000F0E009C0893029F42093A600509392008F
:100430000CC08A3011F431E008C08B3031F48BE409
:10044000809393008AE580939200F093A200E0935A
:10045000A100932F9F3F39F4888187FD9E8180E81A
:100460008093860007C08F81882321F48E818917AD
:1004700008F4982F9093710011C08091860087FF37
:100480000DC08C2F9D2F73DE8F3F21F48EE1809362
:10049000700004C0882311F0109271001092A30024
:1004A0008091700084FF46C0809171008F3F09F4F5
:1004B00041C0682F893008F068E0861B8093710086
:1004C0008091870098E8892780938700A8E8B0E0AA
:1004D0006623F9F08091860087FF05C08A2F9B2F45
:1004E0003ADE682F16C0962FE091A100F091A2008D
:1004F00086FF07C0C895802D8D9331969150D1F716
:1005000004C081918D939150E1F7F093A200E093A4
:10051000A1007727C62F693038F488E890E03CD0F6
:10052000CC5FCC3028F401C0CEE18FEF8093710016
:10053000C093700094E180B38C7049F49150D9F766
:100540009093A40090939E008AE580939200DF919F
:10055000CF91089585B7836085BF8BB780648BBFCB
:100560008BE4809393008AE5809392000895A82FEE
:10057000B92F80E090E041E050EA609530E009C09A
:100580002D9182279795879510F084279527305EC7
:10059000C8F36F5FA8F30895EADF8D939D930895E4
:1005A000CF93CFB7CF93DF93C395839BE9F7839B1B
:1005B0000BC0839B09C0839B07C0839B05C0839BA3
:1005C00003C0839B01C08EC06F93C091A000DD2744
:1005D000C955DF4F2F9365E5839B03C02F916F9122
:1005E000E6CF0F931F934F9320E040E15F9300B35A
:1005F0000C7003FB27F93F9350E03BE039C01C70BF
:1006000040642F77012F5F5F1EC0406810B31C70DD
:100610002F7752501FC0406400B32F770C70D1F178
:100620005F5F00C023C0406210B32F771C7091F150
:100630005F5F00C025C00C701027515012F45D5F41
:100640000000115027952C3F10B3C8F61C700127ED
:10065000015027952C3FC8F64227499300B30C70F0
:1006600010274F73115027952C3FA8F646954695B5
:1006700010B31C7079F00127015027952C3F98F694
:100680006B5A60F3315000B3B0F600C010E41ABFEB
:1006900000271CC03B503195C31BD04010E41ABF4B
:1006A0000881033C21F10B3411F120919E00198146
:1006B000110F1213EDCF4A81441F093669F10D3233
:1006C00011F0013E29F74F7009F0042F0093A500A7
:1006D0003F915F914F911F910F912F916F91CAB7E9
:1006E000C6FD62CFDF91CF91CFBFCF9118952091FA
:1006F000A500222369F31091A300112391F5343052
:1007000092F13093A30020939F001091A0003BE052
:10071000311B3093A00027C00091A30001300CF5DD
:100720000AE54F7049F43091700034FD1DC000930C
:100730007000C7E8D0E01CC03091920034FD14C0B6
:1007400000939200C3E9D0E013C0052710E000C079
:10075000000002BB1AC0052710E0221F1DC010E0D8
:1007600021C04AE502C032ED432FC4E1D0E032E0BF
:1007700011B31C60939A02B311BB5CE020E865E3FF
:1007800020FF052702BB279517951C3FF0F66695BD
:10079000B8F7B1F720FF052702BB279517951C3F37
:1007A000D0F62795179517FF052700001C3F02BBC1
:1007B000B0F629913A9519F7037F1091A400110F13
:1007C000C651D04002BB11F010939E0010E41ABF36
:1007D000086011B3137F402F437F54E05A95F1F71F
:0A07E00002BB11BB42BB74CFFFCF78
:1007EA00000003820584078609888A008C000F8E20
:0207FA005AFFA4
:00000001FF
