:1000000067C09EC27FC07EC07DC07CC07BC07AC0FE
:1000100079C078C077C076C075C074C073C072C034
:1000200071C070C06FC00902650002010080320912
:100030000400000001010000092401000109000181
:10004000010904010002010300000724010001412D
:100050000006240201010006240202020009240312
:100060000103010201000924030204010101000946
:1000700005010308000A00000525010101090581A9
:100080000308000A00000525010103120110010008
:10009000000008C016E4050100010200010A034D3A
:1000A000006F0043006F0024036B00750077006150
:1000B0000074006100790040006E00690066007401
:1000C0000079002E0063006F006D00040309040036
:1000D00011241FBECFEDCDBF10E0A0E6B0E0EAE8EE
:1000E000F7E003C0C89531960D92A236B107D1F75B
:1000F00010E0A2E6B0E001C01D92AC3BB107E1F711
:1001000073D042C37DCFF92FE82F8381813049F42A
:100110008BE890E09093A1008093A00082E190E0B2
:10012000089586E290E09093A1008093A00085E678
:1001300090E00895F92FE82FE0818E2F992780769F
:100140009070809729F4E7FD03C081E080936400FC
:100150008FEF90E00895F92FE82F1082118212821C
:10016000138214821582168287E090E0089581E060
:1001700090E00895CF93DF93B92FA82F2C912F7083
:1001800088B391E0892788BB921720F5392FDB2FA0
:10019000CA2F219680916300E82FFF27EB59FF4F6C
:1001A000999190838F5F8F7180936300313029F430
:1001B000253081F02F3071F00AC0323041F4223006
:1001C00049F0263039F02C3029F02D3019F03F5FFE
:1001D000343000F3653018F014966450CFCFDF91BF
:1001E000CF910895C7DF0895CFEDD0E0DEBFCDBF3A
:1001F00088E190E02EE00FB6F894A89581BD0FBE7F
:1002000021BD81ED82BB8EE281BBCFEF80E08150CA
:10021000F1F7C150D9F782E281BB8FE189B988E15A
:100220008AB981E087BBC8BB65D1C093640078946C
:1002300081E088BBA8953AD05D9BFCCF809163009C
:10024000909162008917B1F3E92FFF27EB59FF4F17
:100250009F5F80818CB99F7190936200EBCFCF93A9
:10026000C62FB92FA82F809191008E31E9F080918F
:10027000910084FF07C08091920098E889278093BD
:10028000920003C08AE580939100E3E9F0E09C2F9F
:100290008D91819391501916DCF36C2F83E990E0D6
:1002A0004BD1CC5FC0939100CF910895CF93DF9352
:1002B0006091A200635067FDC3C080919F00C2EBB4
:1002C000D0E0C81BD10980919E00803120F48C2F92
:1002D0009D2F88DFB3C08D3209F09FC0683009F0D0
:1002E000ADC083EC809386005AE550936000109275
:1002F00085009881892F807629F08C2F9D2F1ADF19
:10030000982F78C0382FEFE8F0E02A814C81809355
:100310008F008981882381F49F71923051F4413894
:1003200041F4932F809191008E3109F491E09093E4
:100330008F00118232E059C0813011F0833089F48E
:10034000222309F052C0413809F04FC0813011F426
:10035000852F01C08EE1809391008BE48093920001
:1003600044C0853019F42093A3003FC0863029F59E
:100370008B81813011F0823029F48C2F9D2FC3DEC8
:10038000382F17C08330A9F4222321F434E08BECFA
:1003900090E00BC0213021F434E287EA90E005C000
:1003A000223039F43AE08DE990E09093A1008093F7
:1003B000A00080E4809385001CC0883019F4E5EA31
:1003C000F0E009C0893029F42093A50050939100F2
:1003D0000CC08A3011F431E008C08B3031F48BE46A
:1003E000809392008AE580939100F093A100E093BE
:1003F000A000932F9F3F39F4888187FD9E8180E87C
:100400008093850007C08F81882321F48E8189170E
:1004100008F4982F9093610011C08091850087FFA8
:100420000DC08C2F9D2FA3DE8F3F21F48EE1809392
:10043000600004C0882311F0109261001092A200A5
:100440008091600084FF46C0809161008F3F09F475
:1004500041C0682F893008F068E0861B80936100F6
:100460008091860098E8892780938600A7E8B0E00D
:100470006623F9F08091850087FF05C08A2F9B2FA6
:100480006ADE682F16C0962FE091A000F091A100BF
:1004900086FF07C0C895802D8D9331969150D1F776
:1004A00004C081918D939150E1F7F093A100E09306
:1004B000A0007727C62F693038F487E890E03CD059
:1004C000CC5FCC3028F401C0CEE18FEF8093610087
:1004D000C093600094E180B38C7049F49150D9F7D7
:1004E0009093A30090939D008AE580939100DF9103
:1004F000CF91089585B7836085BF8BB780648BBF2C
:100500008BE4809392008AE5809391000895A82F50
:10051000B92F80E090E041E050EA609530E009C0FA
:100520002D9182279795879510F084279527305E27
:10053000C8F36F5FA8F30895EADF8D939D93089544
:10054000CF93CFB7CF93DF93C395839BE9F7839B7B
:100550000BC0839B09C0839B07C0839B05C0839B03
:1005600003C0839B01C08EC06F93C0919F00DD27A5
:10057000CA55DF4F2F9365E5839B03C02F916F9181
:10058000E6CF0F931F934F9320E040E15F9300B3BA
:100590000C7003FB27F93F9350E03BE039C01C701F
:1005A00040642F77012F5F5F1EC0406810B31C703E
:1005B0002F7752501FC0406400B32F770C70D1F1D9
:1005C0005F5F00C023C0406210B32F771C7091F1B1
:1005D0005F5F00C025C00C701027515012F45D5FA2
:1005E0000000115027952C3F10B3C8F61C7001274E
:1005F000015027952C3FC8F64227499300B30C7051
:1006000010274F73115027952C3FA8F64695469515
:1006100010B31C7079F00127015027952C3F98F6F4
:100620006B5A60F3315000B3B0F600C010E41ABF4B
:1006300000271CC03B503195C31BD04010E41ABFAB
:100640000881033C21F10B3411F120919D001981A7
:10065000110F1213EDCF4A81441F093669F10D3293
:1006600011F0013E29F74F7009F0042F0093A40008
:100670003F915F914F911F910F912F916F91CAB749
:10068000C6FD62CFDF91CF91CFBFCF91189520915A
:10069000A400222369F31091A200112391F53430B4
:1006A00092F13093A20020939E0010919F003BE0B6
:1006B000311B30939F0027C00091A20001300CF540
:1006C0000AE54F7049F43091600034FD1DC000937D
:1006D0006000C6E8D0E01CC03091910034FD14C029
:1006E00000939100C2E9D0E013C0052710E000C0DC
:1006F000000002BB1AC0052710E0221F1DC010E039
:1007000021C04AE502C032ED432FC4E1D0E032E01F
:1007100011B31C60939A02B311BB5CE020E865E35F
:1007200020FF052702BB279517951C3FF0F666951D
:10073000B8F7B1F720FF052702BB279517951C3F97
:10074000D0F62795179517FF052700001C3F02BB21
:10075000B0F629913A9519F7037F1091A300110F74
:10076000C651D04002BB11F010939D0010E41ABF97
:10077000086011B3137F402F437F54E05A95F1F77F
:0A07800002BB11BB42BB74CFFFCFD8
:02078A005AFF14
:00000001FF
